{
  "_format": "hh-sol-artifact-1",
  "contractName": "JobRegistry",
  "sourceName": "contracts/JobRegistry.sol",
  "abi": [
    {
      "inputs": [
        {
          "internalType": "string",
          "name": "jobId",
          "type": "string"
        },
        {
          "internalType": "address",
          "name": "provider",
          "type": "address"
        }
      ],
      "name": "assignProvider",
      "outputs": [],
      "stateMutability": "nonpayable",
      "type": "function"
    },
    {
      "inputs": [
        {
          "internalType": "string",
          "name": "jobId",
          "type": "string"
        }
      ],
      "name": "claimJob",
      "outputs": [],
      "stateMutability": "nonpayable",
      "type": "function"
    },
    {
      "inputs": [
        {
          "internalType": "string",
          "name": "jobId",
          "type": "string"
        },
        {
          "internalType": "string",
          "name": "datasetCID",
          "type": "string"
        },
        {
          "internalType": "string",
          "name": "containerCID",
          "type": "string"
        },
        {
          "internalType": "uint256",
          "name": "deadline",
          "type": "uint256"
        },
        {
          "internalType": "string",
          "name": "requiredSpecs",
          "type": "string"
        },
        {
          "internalType": "uint256",
          "name": "minMemory",
          "type": "uint256"
        }
      ],
      "name": "createJob",
      "outputs": [],
      "stateMutability": "payable",
      "type": "function"
    },
    {
      "inputs": [
        {
          "internalType": "string",
          "name": "jobId",
          "type": "string"
        },
        {
          "internalType": "uint256",
          "name": "newDeadline",
          "type": "uint256"
        }
      ],
      "name": "extendDeadline",
      "outputs": [],
      "stateMutability": "nonpayable",
      "type": "function"
    },
    {
      "inputs": [],
      "name": "getAllJobs",
      "outputs": [
        {
          "components": [
            {
              "internalType": "string",
              "name": "jobId",
              "type": "string"
            },
            {
              "internalType": "address",
              "name": "owner",
              "type": "address"
            },
            {
              "internalType": "uint256",
              "name": "bounty",
              "type": "uint256"
            },
            {
              "internalType": "string",
              "name": "datasetCID",
              "type": "string"
            },
            {
              "internalType": "string",
              "name": "containerCID",
              "type": "string"
            },
            {
              "internalType": "uint256",
              "name": "deadline",
              "type": "uint256"
            },
            {
              "internalType": "address",
              "name": "provider",
              "type": "address"
            },
            {
              "internalType": "bytes32",
              "name": "resultHash",
              "type": "bytes32"
            },
            {
              "internalType": "string",
              "name": "requiredSpecs",
              "type": "string"
            },
            {
              "internalType": "uint256",
              "name": "minMemory",
              "type": "uint256"
            },
            {
              "internalType": "bool",
              "name": "completed",
              "type": "bool"
            }
          ],
          "internalType": "struct JobRegistry.Job[]",
          "name": "",
          "type": "tuple[]"
        }
      ],
      "stateMutability": "view",
      "type": "function"
    },
    {
      "inputs": [],
      "name": "getJobIds",
      "outputs": [
        {
          "internalType": "string[]",
          "name": "",
          "type": "string[]"
        }
      ],
      "stateMutability": "view",
      "type": "function"
    },
    {
      "inputs": [],
      "name": "getMyJobs",
      "outputs": [
        {
          "components": [
            {
              "internalType": "string",
              "name": "jobId",
              "type": "string"
            },
            {
              "internalType": "address",
              "name": "owner",
              "type": "address"
            },
            {
              "internalType": "uint256",
              "name": "bounty",
              "type": "uint256"
            },
            {
              "internalType": "string",
              "name": "datasetCID",
              "type": "string"
            },
            {
              "internalType": "string",
              "name": "containerCID",
              "type": "string"
            },
            {
              "internalType": "uint256",
              "name": "deadline",
              "type": "uint256"
            },
            {
              "internalType": "address",
              "name": "provider",
              "type": "address"
            },
            {
              "internalType": "bytes32",
              "name": "resultHash",
              "type": "bytes32"
            },
            {
              "internalType": "string",
              "name": "requiredSpecs",
              "type": "string"
            },
            {
              "internalType": "uint256",
              "name": "minMemory",
              "type": "uint256"
            },
            {
              "internalType": "bool",
              "name": "completed",
              "type": "bool"
            }
          ],
          "internalType": "struct JobRegistry.Job[]",
          "name": "",
          "type": "tuple[]"
        }
      ],
      "stateMutability": "view",
      "type": "function"
    },
    {
      "inputs": [],
      "name": "getPendingJobs",
      "outputs": [
        {
          "components": [
            {
              "internalType": "string",
              "name": "jobId",
              "type": "string"
            },
            {
              "internalType": "address",
              "name": "owner",
              "type": "address"
            },
            {
              "internalType": "uint256",
              "name": "bounty",
              "type": "uint256"
            },
            {
              "internalType": "string",
              "name": "datasetCID",
              "type": "string"
            },
            {
              "internalType": "string",
              "name": "containerCID",
              "type": "string"
            },
            {
              "internalType": "uint256",
              "name": "deadline",
              "type": "uint256"
            },
            {
              "internalType": "address",
              "name": "provider",
              "type": "address"
            },
            {
              "internalType": "bytes32",
              "name": "resultHash",
              "type": "bytes32"
            },
            {
              "internalType": "string",
              "name": "requiredSpecs",
              "type": "string"
            },
            {
              "internalType": "uint256",
              "name": "minMemory",
              "type": "uint256"
            },
            {
              "internalType": "bool",
              "name": "completed",
              "type": "bool"
            }
          ],
          "internalType": "struct JobRegistry.Job[]",
          "name": "",
          "type": "tuple[]"
        }
      ],
      "stateMutability": "view",
      "type": "function"
    },
    {
      "inputs": [],
      "name": "jobCount",
      "outputs": [
        {
          "internalType": "uint256",
          "name": "",
          "type": "uint256"
        }
      ],
      "stateMutability": "view",
      "type": "function"
    },
    {
      "inputs": [
        {
          "internalType": "uint256",
          "name": "",
          "type": "uint256"
        }
      ],
      "name": "jobIds",
      "outputs": [
        {
          "internalType": "string",
          "name": "",
          "type": "string"
        }
      ],
      "stateMutability": "view",
      "type": "function"
    },
    {
      "inputs": [
        {
          "internalType": "string",
          "name": "",
          "type": "string"
        }
      ],
      "name": "jobs",
      "outputs": [
        {
          "internalType": "string",
          "name": "jobId",
          "type": "string"
        },
        {
          "internalType": "address",
          "name": "owner",
          "type": "address"
        },
        {
          "internalType": "uint256",
          "name": "bounty",
          "type": "uint256"
        },
        {
          "internalType": "string",
          "name": "datasetCID",
          "type": "string"
        },
        {
          "internalType": "string",
          "name": "containerCID",
          "type": "string"
        },
        {
          "internalType": "uint256",
          "name": "deadline",
          "type": "uint256"
        },
        {
          "internalType": "address",
          "name": "provider",
          "type": "address"
        },
        {
          "internalType": "bytes32",
          "name": "resultHash",
          "type": "bytes32"
        },
        {
          "internalType": "string",
          "name": "requiredSpecs",
          "type": "string"
        },
        {
          "internalType": "uint256",
          "name": "minMemory",
          "type": "uint256"
        },
        {
          "internalType": "bool",
          "name": "completed",
          "type": "bool"
        }
      ],
      "stateMutability": "view",
      "type": "function"
    },
    {
      "inputs": [
        {
          "internalType": "address",
          "name": "",
          "type": "address"
        }
      ],
      "name": "providers",
      "outputs": [
        {
          "internalType": "address",
          "name": "wallet",
          "type": "address"
        },
        {
          "internalType": "string",
          "name": "specs",
          "type": "string"
        },
        {
          "internalType": "uint256",
          "name": "memoryAvailable",
          "type": "uint256"
        },
        {
          "internalType": "string",
          "name": "gpuName",
          "type": "string"
        },
        {
          "internalType": "bool",
          "name": "active",
          "type": "bool"
        }
      ],
      "stateMutability": "view",
      "type": "function"
    },
    {
      "inputs": [
        {
          "internalType": "string",
          "name": "specs",
          "type": "string"
        },
        {
          "internalType": "uint256",
          "name": "memoryAvailable",
          "type": "uint256"
        },
        {
          "internalType": "string",
          "name": "gpuName",
          "type": "string"
        }
      ],
      "name": "registerNode",
      "outputs": [],
      "stateMutability": "nonpayable",
      "type": "function"
    },
    {
      "inputs": [
        {
          "internalType": "string",
          "name": "jobId",
          "type": "string"
        }
      ],
      "name": "release",
      "outputs": [],
      "stateMutability": "nonpayable",
      "type": "function"
    },
    {
      "inputs": [
        {
          "internalType": "string",
          "name": "jobId",
          "type": "string"
        },
        {
          "internalType": "bytes32",
          "name": "resultHash",
          "type": "bytes32"
        }
      ],
      "name": "submitResult",
      "outputs": [],
      "stateMutability": "nonpayable",
      "type": "function"
    }
  ],
  "bytecode": "0x6080604052348015600f57600080fd5b506138e58061001f6000396000f3fe6080604052600436106100e85760003560e01c80637d2ec6d51161008a578063b05e6f5a11610059578063b05e6f5a146102d9578063b15b6ca014610320578063f34e372314610349578063fbd9caba14610372576100e8565b80637d2ec6d51461023e578063965a79fb146102675780639b00214c14610292578063a0afa730146102bd576100e8565b80634162cc88116100c65780634162cc88146101825780634b0fa847146101bf5780634c5d8a0f146101ea578063664ee76c14610215576100e8565b80630787bc27146100ed57806317a85f551461012e57806318f2882f14610159575b600080fd5b3480156100f957600080fd5b50610114600480360381019061010f9190612499565b61039b565b604051610125959493929190612599565b60405180910390f35b34801561013a57600080fd5b5061014361050e565b6040516101509190612850565b60405180910390f35b34801561016557600080fd5b50610180600480360381019061017b91906129d3565b610a09565b005b34801561018e57600080fd5b506101a960048036038101906101a49190612a2f565b610b63565b6040516101b69190612a5c565b60405180910390f35b3480156101cb57600080fd5b506101d4610c0f565b6040516101e19190612b40565b60405180910390f35b3480156101f657600080fd5b506101ff610ce8565b60405161020c9190612b62565b60405180910390f35b34801561022157600080fd5b5061023c60048036038101906102379190612b7d565b610cee565b005b34801561024a57600080fd5b5061026560048036038101906102609190612c34565b610e12565b005b34801561027357600080fd5b5061027c610f43565b6040516102899190612850565b60405180910390f35b34801561029e57600080fd5b506102a7611363565b6040516102b49190612850565b60405180910390f35b6102d760048036038101906102d29190612c90565b6118e0565b005b3480156102e557600080fd5b5061030060048036038101906102fb9190612d8d565b611bb5565b6040516103179b9a99989796959493929190612de5565b60405180910390f35b34801561032c57600080fd5b5061034760048036038101906103429190612d8d565b611e92565b005b34801561035557600080fd5b50610370600480360381019061036b9190612d8d565b612152565b005b34801561037e57600080fd5b5061039960048036038101906103949190612eac565b6122e0565b005b60016020528060005260406000206000915090508060000160009054906101000a900473ffffffffffffffffffffffffffffffffffffffff16908060010180546103e490612f37565b80601f016020809104026020016040519081016040528092919081815260200182805461041090612f37565b801561045d5780601f106104325761010080835404028352916020019161045d565b820191906000526020600020905b81548152906001019060200180831161044057829003601f168201915b50505050509080600201549080600301805461047890612f37565b80601f01602080910402602001604051908101604052809291908181526020018280546104a490612f37565b80156104f15780601f106104c6576101008083540402835291602001916104f1565b820191906000526020600020905b8154815290600101906020018083116104d457829003601f168201915b5050505050908060040160009054906101000a900460ff16905085565b60606000805b60038054905081101561058d5760026003828154811061053757610536612f68565b5b9060005260206000200160405161054e919061303a565b9081526020016040518091039020600a0160009054906101000a900460ff1661058057818061057c90613080565b9250505b8080600101915050610514565b5060008167ffffffffffffffff8111156105aa576105a961287c565b5b6040519080825280602002602001820160405280156105e357816020015b6105d061239c565b8152602001906001900390816105c85790505b5090506000805b6003805490508110156109ff5760026003828154811061060d5761060c612f68565b5b90600052602060002001604051610624919061303a565b9081526020016040518091039020600a0160009054906101000a900460ff166109f25760026003828154811061065d5761065c612f68565b5b90600052602060002001604051610674919061303a565b90815260200160405180910390206040518061016001604052908160008201805461069e90612f37565b80601f01602080910402602001604051908101604052809291908181526020018280546106ca90612f37565b80156107175780601f106106ec57610100808354040283529160200191610717565b820191906000526020600020905b8154815290600101906020018083116106fa57829003601f168201915b505050505081526020016001820160009054906101000a900473ffffffffffffffffffffffffffffffffffffffff1673ffffffffffffffffffffffffffffffffffffffff1673ffffffffffffffffffffffffffffffffffffffff1681526020016002820154815260200160038201805461079090612f37565b80601f01602080910402602001604051908101604052809291908181526020018280546107bc90612f37565b80156108095780601f106107de57610100808354040283529160200191610809565b820191906000526020600020905b8154815290600101906020018083116107ec57829003601f168201915b5050505050815260200160048201805461082290612f37565b80601f016020809104026020016040519081016040528092919081815260200182805461084e90612f37565b801561089b5780601f106108705761010080835404028352916020019161089b565b820191906000526020600020905b81548152906001019060200180831161087e57829003601f168201915b50505050508152602001600582015481526020016006820160009054906101000a900473ffffffffffffffffffffffffffffffffffffffff1673ffffffffffffffffffffffffffffffffffffffff1673ffffffffffffffffffffffffffffffffffffffff1681526020016007820154815260200160088201805461091e90612f37565b80601f016020809104026020016040519081016040528092919081815260200182805461094a90612f37565b80156109975780601f1061096c57610100808354040283529160200191610997565b820191906000526020600020905b81548152906001019060200180831161097a57829003601f168201915b5050505050815260200160098201548152602001600a820160009054906101000a900460ff1615151515815250508383815181106109d8576109d7612f68565b5b602002602001018190525081806109ee90613080565b9250505b80806001019150506105ea565b5081935050505090565b6000600283604051610a1b91906130f9565b908152602001604051809103902090508060010160009054906101000a900473ffffffffffffffffffffffffffffffffffffffff1673ffffffffffffffffffffffffffffffffffffffff163373ffffffffffffffffffffffffffffffffffffffff1614610abd576040517f08c379a0000000000000000000000000000000000000000000000000000000008152600401610ab49061315c565b60405180910390fd5b80600a0160009054906101000a900460ff1615610b0f576040517f08c379a0000000000000000000000000000000000000000000000000000000008152600401610b06906131c8565b60405180910390fd5b80600501548211610b55576040517f08c379a0000000000000000000000000000000000000000000000000000000008152600401610b4c90613234565b60405180910390fd5b818160050181905550505050565b60038181548110610b7357600080fd5b906000526020600020016000915090508054610b8e90612f37565b80601f0160208091040260200160405190810160405280929190818152602001828054610bba90612f37565b8015610c075780601f10610bdc57610100808354040283529160200191610c07565b820191906000526020600020905b815481529060010190602001808311610bea57829003601f168201915b505050505081565b60606003805480602002602001604051908101604052809291908181526020016000905b82821015610cdf578382906000526020600020018054610c5290612f37565b80601f0160208091040260200160405190810160405280929190818152602001828054610c7e90612f37565b8015610ccb5780601f10610ca057610100808354040283529160200191610ccb565b820191906000526020600020905b815481529060010190602001808311610cae57829003601f168201915b505050505081526020019060010190610c33565b50505050905090565b60005481565b6040518060a001604052803373ffffffffffffffffffffffffffffffffffffffff16815260200184815260200183815260200182815260200160011515815250600160003373ffffffffffffffffffffffffffffffffffffffff1673ffffffffffffffffffffffffffffffffffffffff16815260200190815260200160002060008201518160000160006101000a81548173ffffffffffffffffffffffffffffffffffffffff021916908373ffffffffffffffffffffffffffffffffffffffff1602179055506020820151816001019081610dc991906133eb565b50604082015181600201556060820151816003019081610de991906133eb565b5060808201518160040160006101000a81548160ff021916908315150217905550905050505050565b6000600283604051610e2491906130f9565b908152602001604051809103902090503373ffffffffffffffffffffffffffffffffffffffff168160060160009054906101000a900473ffffffffffffffffffffffffffffffffffffffff1673ffffffffffffffffffffffffffffffffffffffff1614610ec6576040517f08c379a0000000000000000000000000000000000000000000000000000000008152600401610ebd9061352f565b60405180910390fd5b80600a0160009054906101000a900460ff1615610f18576040517f08c379a0000000000000000000000000000000000000000000000000000000008152600401610f0f9061359b565b60405180910390fd5b818160070181905550600181600a0160006101000a81548160ff021916908315150217905550505050565b6060600060038054905067ffffffffffffffff811115610f6657610f6561287c565b5b604051908082528060200260200182016040528015610f9f57816020015b610f8c61239c565b815260200190600190039081610f845790505b50905060005b60038054905081101561135b57600260038281548110610fc857610fc7612f68565b5b90600052602060002001604051610fdf919061303a565b90815260200160405180910390206040518061016001604052908160008201805461100990612f37565b80601f016020809104026020016040519081016040528092919081815260200182805461103590612f37565b80156110825780601f1061105757610100808354040283529160200191611082565b820191906000526020600020905b81548152906001019060200180831161106557829003601f168201915b505050505081526020016001820160009054906101000a900473ffffffffffffffffffffffffffffffffffffffff1673ffffffffffffffffffffffffffffffffffffffff1673ffffffffffffffffffffffffffffffffffffffff168152602001600282015481526020016003820180546110fb90612f37565b80601f016020809104026020016040519081016040528092919081815260200182805461112790612f37565b80156111745780601f1061114957610100808354040283529160200191611174565b820191906000526020600020905b81548152906001019060200180831161115757829003601f168201915b5050505050815260200160048201805461118d90612f37565b80601f01602080910402602001604051908101604052809291908181526020018280546111b990612f37565b80156112065780601f106111db57610100808354040283529160200191611206565b820191906000526020600020905b8154815290600101906020018083116111e957829003601f168201915b50505050508152602001600582015481526020016006820160009054906101000a900473ffffffffffffffffffffffffffffffffffffffff1673ffffffffffffffffffffffffffffffffffffffff1673ffffffffffffffffffffffffffffffffffffffff1681526020016007820154815260200160088201805461128990612f37565b80601f01602080910402602001604051908101604052809291908181526020018280546112b590612f37565b80156113025780601f106112d757610100808354040283529160200191611302565b820191906000526020600020905b8154815290600101906020018083116112e557829003601f168201915b5050505050815260200160098201548152602001600a820160009054906101000a900460ff16151515158152505082828151811061134357611342612f68565b5b60200260200101819052508080600101915050610fa5565b508091505090565b60606000805b600380549050811015611423573373ffffffffffffffffffffffffffffffffffffffff166002600383815481106113a3576113a2612f68565b5b906000526020600020016040516113ba919061303a565b908152602001604051809103902060010160009054906101000a900473ffffffffffffffffffffffffffffffffffffffff1673ffffffffffffffffffffffffffffffffffffffff160361141657818061141290613080565b9250505b8080600101915050611369565b5060008167ffffffffffffffff8111156114405761143f61287c565b5b60405190808252806020026020018201604052801561147957816020015b61146661239c565b81526020019060019003908161145e5790505b5090506000805b6003805490508110156118d6573373ffffffffffffffffffffffffffffffffffffffff166002600383815481106114ba576114b9612f68565b5b906000526020600020016040516114d1919061303a565b908152602001604051809103902060010160009054906101000a900473ffffffffffffffffffffffffffffffffffffffff1673ffffffffffffffffffffffffffffffffffffffff16036118c95760026003828154811061153457611533612f68565b5b9060005260206000200160405161154b919061303a565b90815260200160405180910390206040518061016001604052908160008201805461157590612f37565b80601f01602080910402602001604051908101604052809291908181526020018280546115a190612f37565b80156115ee5780601f106115c3576101008083540402835291602001916115ee565b820191906000526020600020905b8154815290600101906020018083116115d157829003601f168201915b505050505081526020016001820160009054906101000a900473ffffffffffffffffffffffffffffffffffffffff1673ffffffffffffffffffffffffffffffffffffffff1673ffffffffffffffffffffffffffffffffffffffff1681526020016002820154815260200160038201805461166790612f37565b80601f016020809104026020016040519081016040528092919081815260200182805461169390612f37565b80156116e05780601f106116b5576101008083540402835291602001916116e0565b820191906000526020600020905b8154815290600101906020018083116116c357829003601f168201915b505050505081526020016004820180546116f990612f37565b80601f016020809104026020016040519081016040528092919081815260200182805461172590612f37565b80156117725780601f1061174757610100808354040283529160200191611772565b820191906000526020600020905b81548152906001019060200180831161175557829003601f168201915b50505050508152602001600582015481526020016006820160009054906101000a900473ffffffffffffffffffffffffffffffffffffffff1673ffffffffffffffffffffffffffffffffffffffff1673ffffffffffffffffffffffffffffffffffffffff168152602001600782015481526020016008820180546117f590612f37565b80601f016020809104026020016040519081016040528092919081815260200182805461182190612f37565b801561186e5780601f106118435761010080835404028352916020019161186e565b820191906000526020600020905b81548152906001019060200180831161185157829003601f168201915b5050505050815260200160098201548152602001600a820160009054906101000a900460ff1615151515815250508383815181106118af576118ae612f68565b5b602002602001018190525081806118c590613080565b9250505b8080600101915050611480565b5081935050505090565b600073ffffffffffffffffffffffffffffffffffffffff1660028760405161190891906130f9565b908152602001604051809103902060010160009054906101000a900473ffffffffffffffffffffffffffffffffffffffff1673ffffffffffffffffffffffffffffffffffffffff1614611990576040517f08c379a000000000000000000000000000000000000000000000000000000000815260040161198790613607565b60405180910390fd5b6040518061016001604052808781526020013373ffffffffffffffffffffffffffffffffffffffff168152602001348152602001868152602001858152602001848152602001600073ffffffffffffffffffffffffffffffffffffffff1681526020016000801b815260200183815260200182815260200160001515815250600287604051611a1f91906130f9565b90815260200160405180910390206000820151816000019081611a4291906133eb565b5060208201518160010160006101000a81548173ffffffffffffffffffffffffffffffffffffffff021916908373ffffffffffffffffffffffffffffffffffffffff160217905550604082015181600201556060820151816003019081611aa991906133eb565b506080820151816004019081611abf91906133eb565b5060a0820151816005015560c08201518160060160006101000a81548173ffffffffffffffffffffffffffffffffffffffff021916908373ffffffffffffffffffffffffffffffffffffffff16021790555060e08201518160070155610100820151816008019081611b3191906133eb565b50610120820151816009015561014082015181600a0160006101000a81548160ff021916908315150217905550905050600386908060018154018082558091505060019003906000526020600020016000909190919091509081611b9591906133eb565b50600080815480929190611ba890613080565b9190505550505050505050565b600281805160208101820180518482526020830160208501208183528095505050505050600091509050806000018054611bee90612f37565b80601f0160208091040260200160405190810160405280929190818152602001828054611c1a90612f37565b8015611c675780601f10611c3c57610100808354040283529160200191611c67565b820191906000526020600020905b815481529060010190602001808311611c4a57829003601f168201915b5050505050908060010160009054906101000a900473ffffffffffffffffffffffffffffffffffffffff1690806002015490806003018054611ca890612f37565b80601f0160208091040260200160405190810160405280929190818152602001828054611cd490612f37565b8015611d215780601f10611cf657610100808354040283529160200191611d21565b820191906000526020600020905b815481529060010190602001808311611d0457829003601f168201915b505050505090806004018054611d3690612f37565b80601f0160208091040260200160405190810160405280929190818152602001828054611d6290612f37565b8015611daf5780601f10611d8457610100808354040283529160200191611daf565b820191906000526020600020905b815481529060010190602001808311611d9257829003601f168201915b5050505050908060050154908060060160009054906101000a900473ffffffffffffffffffffffffffffffffffffffff1690806007015490806008018054611df690612f37565b80601f0160208091040260200160405190810160405280929190818152602001828054611e2290612f37565b8015611e6f5780601f10611e4457610100808354040283529160200191611e6f565b820191906000526020600020905b815481529060010190602001808311611e5257829003601f168201915b50505050509080600901549080600a0160009054906101000a900460ff1690508b565b6000600282604051611ea491906130f9565b908152602001604051809103902090506000600160003373ffffffffffffffffffffffffffffffffffffffff1673ffffffffffffffffffffffffffffffffffffffff1681526020019081526020016000209050600073ffffffffffffffffffffffffffffffffffffffff168260060160009054906101000a900473ffffffffffffffffffffffffffffffffffffffff1673ffffffffffffffffffffffffffffffffffffffff1614611f8a576040517f08c379a0000000000000000000000000000000000000000000000000000000008152600401611f8190613673565b60405180910390fd5b81600a0160009054906101000a900460ff1615611fdc576040517f08c379a0000000000000000000000000000000000000000000000000000000008152600401611fd39061359b565b60405180910390fd5b3373ffffffffffffffffffffffffffffffffffffffff168260010160009054906101000a900473ffffffffffffffffffffffffffffffffffffffff1673ffffffffffffffffffffffffffffffffffffffff160361206e576040517f08c379a0000000000000000000000000000000000000000000000000000000008152600401612065906136df565b60405180910390fd5b8060040160009054906101000a900460ff166120bf576040517f08c379a00000000000000000000000000000000000000000000000000000000081526004016120b69061374b565b60405180910390fd5b81600901548160020154101561210a576040517f08c379a0000000000000000000000000000000000000000000000000000000008152600401612101906137b7565b60405180910390fd5b338260060160006101000a81548173ffffffffffffffffffffffffffffffffffffffff021916908373ffffffffffffffffffffffffffffffffffffffff160217905550505050565b600060028260405161216491906130f9565b9081526020016040518091039020905080600a0160009054906101000a900460ff166121c5576040517f08c379a00000000000000000000000000000000000000000000000000000000081526004016121bc90613823565b60405180910390fd5b8060010160009054906101000a900473ffffffffffffffffffffffffffffffffffffffff1673ffffffffffffffffffffffffffffffffffffffff163373ffffffffffffffffffffffffffffffffffffffff1614612257576040517f08c379a000000000000000000000000000000000000000000000000000000000815260040161224e9061388f565b60405180910390fd5b60008160060160009054906101000a900473ffffffffffffffffffffffffffffffffffffffff169050600082600201549050600083600201819055508173ffffffffffffffffffffffffffffffffffffffff166108fc829081150290604051600060405180830381858888f193505050501580156122d9573d6000803e3d6000fd5b5050505050565b60006002836040516122f291906130f9565b9081526020016040518091039020905080600a0160009054906101000a900460ff1615612354576040517f08c379a000000000000000000000000000000000000000000000000000000000815260040161234b9061359b565b60405180910390fd5b818160060160006101000a81548173ffffffffffffffffffffffffffffffffffffffff021916908373ffffffffffffffffffffffffffffffffffffffff160217905550505050565b60405180610160016040528060608152602001600073ffffffffffffffffffffffffffffffffffffffff16815260200160008152602001606081526020016060815260200160008152602001600073ffffffffffffffffffffffffffffffffffffffff1681526020016000801916815260200160608152602001600081526020016000151581525090565b6000604051905090565b600080fd5b600080fd5b600073ffffffffffffffffffffffffffffffffffffffff82169050919050565b60006124668261243b565b9050919050565b6124768161245b565b811461248157600080fd5b50565b6000813590506124938161246d565b92915050565b6000602082840312156124af576124ae612431565b5b60006124bd84828501612484565b91505092915050565b6124cf8161245b565b82525050565b600081519050919050565b600082825260208201905092915050565b60005b8381101561250f5780820151818401526020810190506124f4565b60008484015250505050565b6000601f19601f8301169050919050565b6000612537826124d5565b61254181856124e0565b93506125518185602086016124f1565b61255a8161251b565b840191505092915050565b6000819050919050565b61257881612565565b82525050565b60008115159050919050565b6125938161257e565b82525050565b600060a0820190506125ae60008301886124c6565b81810360208301526125c0818761252c565b90506125cf604083018661256f565b81810360608301526125e1818561252c565b90506125f0608083018461258a565b9695505050505050565b600081519050919050565b600082825260208201905092915050565b6000819050602082019050919050565b600082825260208201905092915050565b6000612642826124d5565b61264c8185612626565b935061265c8185602086016124f1565b6126658161251b565b840191505092915050565b6126798161245b565b82525050565b61268881612565565b82525050565b6000819050919050565b6126a18161268e565b82525050565b6126b08161257e565b82525050565b60006101608301600083015184820360008601526126d48282612637565b91505060208301516126e96020860182612670565b5060408301516126fc604086018261267f565b50606083015184820360608601526127148282612637565b9150506080830151848203608086015261272e8282612637565b91505060a083015161274360a086018261267f565b5060c083015161275660c0860182612670565b5060e083015161276960e0860182612698565b506101008301518482036101008601526127838282612637565b91505061012083015161279a61012086018261267f565b506101408301516127af6101408601826126a7565b508091505092915050565b60006127c683836126b6565b905092915050565b6000602082019050919050565b60006127e6826125fa565b6127f08185612605565b93508360208202850161280285612616565b8060005b8581101561283e578484038952815161281f85826127ba565b945061282a836127ce565b925060208a01995050600181019050612806565b50829750879550505050505092915050565b6000602082019050818103600083015261286a81846127db565b905092915050565b600080fd5b600080fd5b7f4e487b7100000000000000000000000000000000000000000000000000000000600052604160045260246000fd5b6128b48261251b565b810181811067ffffffffffffffff821117156128d3576128d261287c565b5b80604052505050565b60006128e6612427565b90506128f282826128ab565b919050565b600067ffffffffffffffff8211156129125761291161287c565b5b61291b8261251b565b9050602081019050919050565b82818337600083830152505050565b600061294a612945846128f7565b6128dc565b90508281526020810184848401111561296657612965612877565b5b612971848285612928565b509392505050565b600082601f83011261298e5761298d612872565b5b813561299e848260208601612937565b91505092915050565b6129b081612565565b81146129bb57600080fd5b50565b6000813590506129cd816129a7565b92915050565b600080604083850312156129ea576129e9612431565b5b600083013567ffffffffffffffff811115612a0857612a07612436565b5b612a1485828601612979565b9250506020612a25858286016129be565b9150509250929050565b600060208284031215612a4557612a44612431565b5b6000612a53848285016129be565b91505092915050565b60006020820190508181036000830152612a76818461252c565b905092915050565b600081519050919050565b600082825260208201905092915050565b6000819050602082019050919050565b6000612ab68383612637565b905092915050565b6000602082019050919050565b6000612ad682612a7e565b612ae08185612a89565b935083602082028501612af285612a9a565b8060005b85811015612b2e5784840389528151612b0f8582612aaa565b9450612b1a83612abe565b925060208a01995050600181019050612af6565b50829750879550505050505092915050565b60006020820190508181036000830152612b5a8184612acb565b905092915050565b6000602082019050612b77600083018461256f565b92915050565b600080600060608486031215612b9657612b95612431565b5b600084013567ffffffffffffffff811115612bb457612bb3612436565b5b612bc086828701612979565b9350506020612bd1868287016129be565b925050604084013567ffffffffffffffff811115612bf257612bf1612436565b5b612bfe86828701612979565b9150509250925092565b612c118161268e565b8114612c1c57600080fd5b50565b600081359050612c2e81612c08565b92915050565b60008060408385031215612c4b57612c4a612431565b5b600083013567ffffffffffffffff811115612c6957612c68612436565b5b612c7585828601612979565b9250506020612c8685828601612c1f565b9150509250929050565b60008060008060008060c08789031215612cad57612cac612431565b5b600087013567ffffffffffffffff811115612ccb57612cca612436565b5b612cd789828a01612979565b965050602087013567ffffffffffffffff811115612cf857612cf7612436565b5b612d0489828a01612979565b955050604087013567ffffffffffffffff811115612d2557612d24612436565b5b612d3189828a01612979565b9450506060612d4289828a016129be565b935050608087013567ffffffffffffffff811115612d6357612d62612436565b5b612d6f89828a01612979565b92505060a0612d8089828a016129be565b9150509295509295509295565b600060208284031215612da357612da2612431565b5b600082013567ffffffffffffffff811115612dc157612dc0612436565b5b612dcd84828501612979565b91505092915050565b612ddf8161268e565b82525050565b6000610160820190508181036000830152612e00818e61252c565b9050612e0f602083018d6124c6565b612e1c604083018c61256f565b8181036060830152612e2e818b61252c565b90508181036080830152612e42818a61252c565b9050612e5160a083018961256f565b612e5e60c08301886124c6565b612e6b60e0830187612dd6565b818103610100830152612e7e818661252c565b9050612e8e61012083018561256f565b612e9c61014083018461258a565b9c9b505050505050505050505050565b60008060408385031215612ec357612ec2612431565b5b600083013567ffffffffffffffff811115612ee157612ee0612436565b5b612eed85828601612979565b9250506020612efe85828601612484565b9150509250929050565b7f4e487b7100000000000000000000000000000000000000000000000000000000600052602260045260246000fd5b60006002820490506001821680612f4f57607f821691505b602082108103612f6257612f61612f08565b5b50919050565b7f4e487b7100000000000000000000000000000000000000000000000000000000600052603260045260246000fd5b600081905092915050565b60008190508160005260206000209050919050565b60008154612fc481612f37565b612fce8186612f97565b94506001821660008114612fe95760018114612ffe57613031565b60ff1983168652811515820286019350613031565b61300785612fa2565b60005b838110156130295781548189015260018201915060208101905061300a565b838801955050505b50505092915050565b60006130468284612fb7565b915081905092915050565b7f4e487b7100000000000000000000000000000000000000000000000000000000600052601160045260246000fd5b600061308b82612565565b91507fffffffffffffffffffffffffffffffffffffffffffffffffffffffffffffffff82036130bd576130bc613051565b5b600182019050919050565b60006130d3826124d5565b6130dd8185612f97565b93506130ed8185602086016124f1565b80840191505092915050565b600061310582846130c8565b915081905092915050565b7f4f6e6c79206f776e65722063616e20657874656e6420646561646c696e650000600082015250565b6000613146601e836124e0565b915061315182613110565b602082019050919050565b6000602082019050818103600083015261317581613139565b9050919050565b7f43616e6e6f7420657874656e6420636f6d706c65746564206a6f620000000000600082015250565b60006131b2601b836124e0565b91506131bd8261317c565b602082019050919050565b600060208201905081810360008301526131e1816131a5565b9050919050565b7f4e657720646561646c696e65206d757374206265206c61746572000000000000600082015250565b600061321e601a836124e0565b9150613229826131e8565b602082019050919050565b6000602082019050818103600083015261324d81613211565b9050919050565b60006020601f8301049050919050565b600082821b905092915050565b6000600883026132a17fffffffffffffffffffffffffffffffffffffffffffffffffffffffffffffffff82613264565b6132ab8683613264565b95508019841693508086168417925050509392505050565b6000819050919050565b60006132e86132e36132de84612565565b6132c3565b612565565b9050919050565b6000819050919050565b613302836132cd565b61331661330e826132ef565b848454613271565b825550505050565b600090565b61332b61331e565b6133368184846132f9565b505050565b5b8181101561335a5761334f600082613323565b60018101905061333c565b5050565b601f82111561339f5761337081612fa2565b61337984613254565b81016020851015613388578190505b61339c61339485613254565b83018261333b565b50505b505050565b600082821c905092915050565b60006133c2600019846008026133a4565b1980831691505092915050565b60006133db83836133b1565b9150826002028217905092915050565b6133f4826124d5565b67ffffffffffffffff81111561340d5761340c61287c565b5b6134178254612f37565b61342282828561335e565b600060209050601f8311600181146134555760008415613443578287015190505b61344d85826133cf565b8655506134b5565b601f19841661346386612fa2565b60005b8281101561348b57848901518255600182019150602085019450602081019050613466565b868310156134a857848901516134a4601f8916826133b1565b8355505b6001600288020188555050505b505050505050565b7f4f6e6c792061737369676e65642070726f76696465722063616e207375626d6960008201527f7400000000000000000000000000000000000000000000000000000000000000602082015250565b60006135196021836124e0565b9150613524826134bd565b604082019050919050565b600060208201905081810360008301526135488161350c565b9050919050565b7f4a6f6220616c726561647920636f6d706c657465640000000000000000000000600082015250565b60006135856015836124e0565b91506135908261354f565b602082019050919050565b600060208201905081810360008301526135b481613578565b9050919050565b7f4a6f6220616c7265616479206578697374730000000000000000000000000000600082015250565b60006135f16012836124e0565b91506135fc826135bb565b602082019050919050565b60006020820190508181036000830152613620816135e4565b9050919050565b7f4a6f6220616c726561647920636c61696d656400000000000000000000000000600082015250565b600061365d6013836124e0565b915061366882613627565b602082019050919050565b6000602082019050818103600083015261368c81613650565b9050919050565b7f596f752063616e6e6f7420636c61696d20796f7572206f776e206a6f62000000600082015250565b60006136c9601d836124e0565b91506136d482613693565b602082019050919050565b600060208201905081810360008301526136f8816136bc565b9050919050565b7f4e6f6465206e6f74207265676973746572656400000000000000000000000000600082015250565b60006137356013836124e0565b9150613740826136ff565b602082019050919050565b6000602082019050818103600083015261376481613728565b9050919050565b7f496e73756666696369656e74206d656d6f727900000000000000000000000000600082015250565b60006137a16013836124e0565b91506137ac8261376b565b602082019050919050565b600060208201905081810360008301526137d081613794565b9050919050565b7f4a6f62206e6f7420636f6d706c65746564207965740000000000000000000000600082015250565b600061380d6015836124e0565b9150613818826137d7565b602082019050919050565b6000602082019050818103600083015261383c81613800565b9050919050565b7f4f6e6c79206f776e65722063616e2072656c6561736520626f756e7479000000600082015250565b6000613879601d836124e0565b915061388482613843565b602082019050919050565b600060208201905081810360008301526138a88161386c565b905091905056fea2646970667358221220aa7abf60af038aed62fedf57cee23896028b8490ec006ad8bb13e4e93d88b4f864736f6c634300081c0033",
  "linkReferences": {},
  "deployedLinkReferences": {}
}